:020000040800F2
:10000000183F002045010008B1330008212C0008EA
:1000100041330008090C0008854100080000000079
:10002000000000000000000000000000E93A0008A5
:10003000A90C00080000000005390008893B0008F1
:100040005F0100085F0100085F0100085F01000810
:100050005F0100085F0100085F0100085F01000800
:100060005F0100085F0100085F0100085F010008F0
:100070005F0100085F0100085F0100085F010008E0
:100080005F0100085F0100085F0100085F010008D0
:100090005F0100085F0100085F0100085F010008C0
:1000A0005F0100085F0100085F0100085F010008B0
:1000B0005F010008093C00085F0100085F010008BB
:1000C0005F0100085F0100085F0100085F01000890
:1000D0005F010008414100085F0100085F0100085E
:1000E0005F0100085F0100085F0100085F01000870
:1000F0005F0100085F0100085F0100085F01000860
:100100005F0100085F0100085F0100085F0100084F
:100110005F010008AD3E00085F0100085F010008B4
:100120005F0100085F0100085F0100085F0100082F
:10013000DFF80CD000F09AFC00480047ED6300089F
:10014000183F00200648804706480047FEE7FEE7C4
:10015000FEE7FEE7FEE7FEE7FEE7FEE7FEE7FEE777
:10016000073C0008310100082DE9F0410024061B7E
:10017000254671F1000605DA01240027D0EB0700BF
:1001800067EB0101161E73F1000605DA0027D2EBBA
:100190000702012567EB030300F03AFB86460E4693
:1001A00017469C46AC4204D00025D0EB050E65EB0B
:1001B000010624B10020D2EB000760EB030C70466F
:1001C00031463A466346BDE8F081202A04DB203AF6
:1001D00021FA02F00021704721FA02F3D040C2F167
:1001E00020029140084319467047D2B201E000F85E
:1001F000012B491EFBD270470022F6E710B51346CB
:100200000A4604461946FFF7F0FF204610BD30B5F8
:1002100004460020034600E05B1C934203D2E05CEE
:10022000CD5C401BF8D030BDF0B480EA0102D40FA1
:100230004200B2EB410F02D20246084611464A0084
:1002400042D0C30DDDB2C1F3C752AD1A202D35DA4D
:10025000C1F3160141F4000204B15242C5F1200677
:1002600002FA06F12A411044B3EBD05F23D0C4B1A7
:10027000012DA0EBC35009DCF0BC4FF0004202EAB4
:10028000C352DBB200F5000000F01DBB400000F1DE
:10029000807000EBC350A0F1807040EAD17049003B
:1002A00009E0490841EAC071A0EBC35000F5000025
:1002B000400800EBC350F0BC00F0FCBA61420122E0
:1002C00002EB4101001BF6E7F0BC704781F00041F2
:1002D000AAE780F00040A7E780EA010210B502F02B
:1002E0000043400022D04A001FD0010E01EB1261F2
:1002F000C0F35600C2F3560240F4000042F400027C
:10030000A0FB022000047F39140400D0401C50EAF6
:10031000124001D44000491EC2B20C0604EBD010BA
:10032000401C4008802A02D003E0002010BD20F0CD
:100330000100002900DA0020184310BD30B480EA23
:10034000010202F0004530F0004221F0004013D0DD
:1003500090B1C30DD40DC2F31601C0F31600E41A18
:1003600041F4000140F400027D34914201D3641C49
:1003700000E04900002C02DA30BC002070474FF446
:1003800000000023914201D3891A034340084FEA39
:100390004101F7D151B1914202D14FF0004105E046
:1003A00002D24FF0010101E06FF0010103EBC450F4
:1003B000284430BC00F07EBA420005D0C0F3C752DA
:1003C0005242914201DC0020704700EBC15070475F
:1003D0002DE9FE4F804681EA0300C00F0C460090D5
:1003E00021F0004123F00045B8EB0200A94105D2FD
:1003F0004046214690461C460B46024623F00040EC
:10040000104347D0270DC7F30A00C3F30A510290E7
:10041000401A019040286BDAC3F3130040F4801BAC
:100420000098924620B10023D2EB030A63EB0B0B3A
:1004300001985946C0F14002504600F01AFA0646AB
:100440000D4650465946019A00F022FA10EB08007A
:100450006141002487EA115284EAE7731A4340D0CD
:10046000009A62B3019A012A4FEA075215DC001B79
:1004700061EB02014FF0004202EA0752CDE900426F
:10048000001C41F5801132462B4600F059FA03B0AA
:10049000BDE8F08F40462146F9E7001B61EB020101
:1004A000001C41F5801300185B412018A2F50017CD
:1004B00047EB030140EAD570B6196D4111E06D08B4
:1004C0004FEA360645EAC0754FEA0752001B61EB5A
:1004D0000201001C41F5801149084FEA3000001963
:1004E000514132462B4603B0BDE8F04F00F019BA37
:1004F0000098012240000023D0EB020263EBE0737E
:10050000009821464FEAE074B8EB000061EB04016B
:10051000E9E783F000435BE781F0004158E72DE90C
:10052000FE4F81EA030404F0004421F000410094EE
:100530004FF0000B23F0004350EA01045ED052EA72
:1005400003045BD0C3F30A54C1F30A552C44A4F24C
:10055000F3340194A0FB0254C1F3130141F4801160
:10056000C3F3130343F4801301FB024400FB034E67
:10057000840A970A44EA815447EA8357A4FB076830
:1005800002958D0A05FB07854FEA932C04FB0C545A
:100590002705029D4FEA065847EA1637B5EB0805CE
:1005A0006EEB070C870E920E47EA811742EA831220
:1005B000A7FB0201B6EB0B0164EB00042B0D43EA31
:1005C0000C335E1844EB1C50DA465146E7FB02013F
:1005D000C5F313044FEA0B3343EA14534FEA0432D2
:1005E000019C43EA0603A4F10C040294009CCDE9AB
:1005F00000B400F0A5F903B0BDE8F08F002001467B
:10060000F9E72DE9F04D81EA030404F0004B21F0F5
:10061000004514464FF0000A23F0004150EA05025D
:1006200020D054EA01021DD0C5F30A570246C5F393
:100630001303C1F31300C1F30A5640F4801543F4C9
:100640008013A7EB0608101BD64608F2FD3873EBA3
:10065000050002D308F1010801E092185B41B8F1EE
:10066000000F03DA00200146BDE8F08D00204FF4B2
:100670008011064684460EE0171B73EB050705D371
:10068000121B63EB050306434CEA010C49084FEAD1
:10069000300092185B4150EA0107EDD152EA0300A5
:1006A00012D082EA040083EA0501084305D0101B3A
:1006B000AB4106D20122002306E000224FF00043A6
:1006C00002E06FF0010253101AEB06004CEB0851E8
:1006D00010EB0A0041EB0B01BDE8F04D00F021B931
:1006E000C10F80EAE0700844CA079623002100F099
:1006F000EAB896230022114600F0E5B80EB540F2A4
:10070000334102910021CDE900110A460B4600F069
:1007100017F903B000BD00F0004220F00040C10D09
:10072000C0F3160040F400007F2901DA0020704772
:10073000962903DCC1F19601C84001E09639884052
:10074000002AF4D04042704720F00040C10DC0F3B1
:10075000160040F400007F2901DA00207047962936
:1007600003DCC1F19601C840704796398840704754
:1007700000F0004230F000400AD0C10D01F5607178
:10078000C0F3160042EA0151C20840071143704706
:1007900000200146704701F0004330B421F00041D1
:1007A00050EA010206D00A0DA2F56072C1F31301EE
:1007B000002A02DC30BC00207047440F44EAC10428
:1007C000C100E01830BC00EBC25000F073B800006C
:1007D000002801DBC0F10040002901DBC1F100412C
:1007E0008842704730B50B46014600202022012484
:1007F00009E021FA02F59D4205D303FA02F5491BEF
:1008000004FA02F52844151EA2F10102F1DC30BD04
:100810002DE9F05F0546002092469B468846064635
:10082000814640241BE02846414647462246FFF7C2
:10083000CCFC53465A46C01A914110D31146184673
:10084000224600F016F82D1A67EB01084F462246A3
:100850000120002100F00DF817EB00094E41201E89
:10086000A4F10104DFDC484631462A464346BDE890
:10087000F09F202A04DB203A00FA02F100207047A2
:100880009140C2F1200320FA03F3194390407047CE
:10089000202A06DBCB17203A41FA02F043EAE07344
:1008A00006E041FA02F3D040C2F120029140084331
:1008B000194670470029A8BF7047401C490008BF6F
:1008C00020F00100704710B4B0FA80FC00FA0CF080
:1008D00050EA010404BF10BC704749B1CCF12004B8
:1008E00021FA04F411FA0CF118BF01212143084345
:1008F000A3EB0C01CB1D4FEA00614FEA102042BF71
:10090000002010BC704700EBC35010440029A4BF66
:1009100010BC7047401C490008BF20F0010010BC0B
:10092000704710B5141E73F1000408DA401C41F141
:10093000000192185B411A4301D120F0010010BD63
:100940002DE9F04D92469B4611B1B1FA81F202E0D9
:10095000B0FA80F220329046FFF78BFF04460F4634
:1009600040EA0A0041EA0B0153465A46084313D0B5
:10097000114653EA010019D0C8F140025046FFF772
:1009800024FC05460E46504659464246FFF771FF85
:10099000084305D0012004E020463946BDE8F08D2B
:1009A0000020054346EAE0762C4337430A98630566
:1009B000E40AA0EB08000022FD0A44EA47540A308A
:1009C00002D500200146E9E7010510196941DDE97A
:1009D000084500196941BDE8F04DA2E770B521F066
:1009E000004303430CD0C1F30A550024D5EB0405A2
:1009F00064EB0403D617AD1AB34102DB00200146B5
:100A000070BD201841EB025170BDC1F30A52C1F311
:100A1000130140F2FF3341F480119A4202DA0020C0
:100A20000146704740F233439A42A2F2334202DC5D
:100A30005242FFF7CABBFFF71CBF000030B5041ECF
:100A400071F1000404DB4FF00044404264EB01010B
:100A5000141E73F1000405DB1C464FF000435242A4
:100A600063EB0403994208BF904230BD064C074D2A
:100A700006E0E06840F0010394E80700984710346E
:100A8000AC42F6D3FFF758FB808B0008A08B000820
:100A90002DE9F04D00231A461B1A8A4103DB002082
:100AA0000146BDE8F08DC1F30A52C1F3130141F4D0
:100AB00080154FF0000BD10702D100186D41521E76
:100AC0000027044640F2FF11384601EB620A3E4619
:100AD0008046024600204FF48011FFF776FBC219D2
:100AE0007141BB1846EB0100B4EB030C75EB000C35
:100AF00004D3E41A65EB000517460E46241908F1E5
:100B000001006D4180463428E3DDF91946EB06000B
:100B1000091BA84103D24FF0FF32134601E0002227
:100B200013461BEB070046EB0A51BDE8F04DFFF7FB
:100B3000F8BE000070B5044600688168C943C90763
:100B400017D1816821F00101816000F0BFFC0546EA
:100B50000AE000BF00F0BAFC401B022804D920685C
:100B60008068C043C00706D020688068C043C007C3
:100B7000F0D0002070BDA06A40F01000A062E06AD2
:100B800040F00100E062012070BD0000F8B50026D1
:100B90000446009600688168C943C9072DD0816862
:100BA00041F001018160164816490068B0FBF1F080
:100BB00000E0401E00900028FBD100F087FC0546B5
:100BC00016E000BF00F082FC401B022810D920680C
:100BD0008068C043C0070BD0A06A40F01000A0623C
:100BE000E06A40F00100E06284F824600120F8BD72
:100BF00020688068C043C007E4D10020F8BD000031
:100C0000C400002040420F00FEE7000038B500207D
:100C100000906B4601227521682005F061FB9DF86C
:100C2000000068280CD0BFF34F8F1C4801681C4A95
:100C300001F4E06111430160BFF34F8F00BFFDE796
:100C400005F034FD002828D1782006F0EDF9782051
:100C500005F05EFCC82006F0A7F904F099FD1148E4
:100C6000044605F09FFB0546E01C05F09BFB45EAAA
:100C7000C005A01D05F096FB45EA801080B204F087
:100C800037FF40F2731004F05BFCC82004F098FEBC
:100C900006F051FA012006F0ADF838BD0CED00E089
:100CA0000400FA05AC000020704772B6FEE70000B1
:100CB000F8B50024009490F824202546012A12D08B
:100CC000012280F824204A681F23072A0DD20668D3
:100CD000776B521E02EB820293409F430B68934056
:100CE0001F43776319E00220F8BD06680D2A0AD277
:100CF000376BD21F02EB820293409F430B689340F5
:100D00001F43376309E0F76A0D3A02EB8202934012
:100D10009F430B6893401F43F7620A6807230668E6
:100D20000A2A0AD3F7680A3A02EB420293409F4329
:100D30008B6893401F43F76008E0376902EB42027B
:100D400093409F438B6893401F4337610A68102A82
:100D500001D0112A20D1124B02689A4217D1936810
:100D60001B0219D4936843F40003936009681029A7
:100D700012D10C490C4A0968B1FBF2F101EB810177
:100D8000490000E0491E00910029FBD104E0816A7E
:100D900041F020018162012480F824502046F8BDF2
:100DA00000240140C400002040420F000068C06CD5
:100DB000704700002DE9F04104004FF0000514D009
:100DC000A06A002628B9E66284F82460204600F074
:100DD00083F82046FFF7AEFEA16A01F0100101433F
:100DE00004D0A06A40F01000A0626BE0A16A21F478
:100DF000885141F00201A162334923688B42E169C5
:100E000004D1B1F5402F01D14FF40021277B4FF4DD
:100E1000807C41EA470261680A43A168614509D0C4
:100E2000012907D05FF0000194F814E0BEF1010F32
:100E300002D00AE06146F7E7C7B1A76A47F020078A
:100E4000A762E76A47F00107E7625F6827F469472E
:100E50000F435F60236899681C4F394011439960C4
:100E6000A16861450BD0012909D00CE0DFF860E0F2
:100E7000A7690EEB47370F4347F40061E5E7218A86
:100E80000D05A5F580152168CB6A23F470032B436B
:100E9000CB62216889680F4B1940914208D1E66204
:100EA000A16A21F0020141F00101A162BDE8F081D7
:100EB000A06A20F0020040F01000A062E06A40F05A
:100EC0000100E0620120F1E7003C0140FDF7E1FF95
:100ED00000E0FFFFFE0E1FFF00B585B0002100916E
:100EE00001910291039100680E49884218D10E4881
:100EF000816941F480618161816901F480610491BB
:100F0000816941F0100181618069694600F010003B
:100F100004900220009003200190044800F0D4F9CE
:100F200005B000BD00280140001002400010014043
:100F30002DE9F84300270D460446009700F0C6FA55
:100F4000804620688168C90508D5A06A40F0200065
:100F5000A06284F824700120BDE8F8834168C905C7
:100F600003D4C06A10F4700F2AD0022000F050FBA6
:100F70003B490968B1FBF0F62068036939490B4227
:100F80004FEA61014FEAA1121FD1C3684FEA611C09
:100F900013EA0C0F19D103690B4225D1C068104226
:100FA00022D1142023E0681C0AD02DB100F08EFA63
:100FB000A0EB0800A84203D920680068800725D567
:100FC000206800688007EED52DE003690B4202D14E
:100FD000C168114206D0026923490A4206D1C0689D
:100FE000084203D1542002E0292000E0FC204643BF
:100FF000009816E0681C11D02DB100F067FAA0EB44
:101000000800A8420AD90098B04207D2A06A40F06E
:101010000400A06284F8247003209DE70098401C1F
:101020000090B042E6D321686FF012000860A06A19
:1010300040F40070A06220688068C0F34240072836
:101040000CD1207B50B9A06A20F48070A062A06A05
:10105000C00403D4A06A40F00100A06200207BE736
:10106000C4000020244992244992240070B504460B
:1010700090F8240001280DD0012084F82400204697
:10108000FFF784FD02004FF0000005D084F8240033
:10109000104670BD022070BDA16A40F20123994341
:1010A00041F48071A1621F4D23681F49AB4218D1E2
:1010B0000E6816F4702F14D0A66A46F48016A66245
:1010C0000E68760505D5A66A26F4005646F48056C5
:1010D000A662A66AF6040AD5E66A26F00606E66265
:1010E00006E0A66A26F48016A6625E68E9E7E0627A
:1010F00084F824006FF00200186020688368C3F34E
:101100004243072B05D1A84208D1096811F4702F7A
:1011100004D0816841F480118160B9E7816841F4AD
:10112000A001F9E7002801400424014010B590F81F
:1011300021100022022905D00421816380F820209B
:10114000012010BD01680B6823F00E030B600168DD
:101150000B6823F001030B6090F84030C46B012151
:1011600001FA03F3636080F8211080F82020104614
:1011700010BD00002DE9F05F90F821100024022935
:1011800003D004218163012485E001680A6822F00C
:101190000E020A6001680A6822F001020A603F4EEE
:1011A0003E4FB215DFF8F4C0DFF8F090DFF8ECA0A6
:1011B000DFF8E8B0DFF8E4E00168783F13011502DA
:1011C000ACF1640CA9F15009AAF13C0AABF1280B6F
:1011D000AEF1140E4FF48018B14227D9B9420ED0A7
:1011E000614512D049451DD0514518D0594518D0F8
:1011F000714501D1424615E0294EB14201D101228B
:1012000010E0274E1436B14201D110220AE0244EDC
:101210002836B14206D0224A3C32914201D11A46C8
:1012200000E02A461E49091F0A602BE0B94213D08C
:10123000614517D0494522D051451DD059451DD093
:10124000714501D142461AE0B14202D14FF080729D
:1012500015E0134EB14201D1012210E0104E1436B8
:10126000B14201D110220AE00D4E2836B14206D01B
:101270000B4A3C32914201D11A4600E02A46074906
:1012800080394A60012180F82110002180F8201067
:10129000416B01B188472046BDE8F09F80000240C5
:1012A0000804024070B5044600F010F90546601CC1
:1012B00002D004480078044400F008F9401BA04222
:1012C000FAD370BDB80000202DE9F84FDFF8C891BF
:1012D0000024A9F1040B23460F2709F1040AABF1FE
:1012E000040ED1E00125A54006EA0502AA4276D106
:1012F000DFF8A8C14E68A6EB0C0866452BD00DDCC4
:10130000032E34D005DC36B3012E19D0022E2FD196
:101310001BE0112E16D0122E2AD119E0B8F5881F25
:1013200019D006DCB8F5803F15D0B8F5801F1FD165
:1013300011E0B8F5001F0ED0B8F5041F18D10AE06F
:10134000CB6815E0CB681B1D12E0CB6808330FE0BB
:10135000CB680C330CE08B682BB1012B4FF00803EA
:1013600003D0456104E0042302E0056100E00023AE
:10137000FF2A01D8064601E000F104064FEA840581
:1013800001D9A5F12005D6F8008007FA05FC28EA66
:101390000C0803FA05F548EA0508C6F800804D6810
:1013A000ED0070D53E4DAE6946F00106AE61AD6907
:1013B00024F0030605F0010500953A4D06EB050CF7
:1013C000DCF80850A607360F07FA06F825EA0805E4
:1013D000DFF8D480404503D14FF0000825E052E00B
:1013E000DFF8C880404502D14FF001081DE0DFF86A
:1013F000C080404502D14FF0020816E0DFF8B4800B
:10140000404502D14FF003080FE0DFF8AC804045C3
:1014100002D14FF0040808E0DFF8A080404502D177
:101420004FF0050801E04FF0060808FA06F848EA10
:101430000508CCF808804D68D9F80060ED024D46EB
:1014400001D5164300E096432E604D68DAF800603F
:10145000AD02554601D5164300E096432E604D6817
:10146000DBF80060AD035D4601D5164300E096430E
:101470002E604D68DEF80060ED03754601D5164319
:1014800000E096432E60641C0A681646E2407FF432
:1014900029AFBDE8F88F00000804014000001110DA
:1014A000001002400000014000080140000C014013
:1014B000001001400014014000180140001C0140D0
:1014C0000AB1016170470904FBE700000148806828
:1014D00070470000B800002002488168027811447B
:1014E00081607047B8000020074810B5016841F0DE
:1014F00010010160032000F079F8032000F006F8E5
:1015000000F024F8002010BD0020024070B50D4D01
:1015100004464FF47A712878B1FBF0F00A49096863
:10152000B1FBF0F000F0B2FB48B9102C07D200225A
:101530002146501E00F03AF800206C6070BD01207A
:1015400070BD0000B8000020C40000200E4808B59F
:10155000816941F001018161816901F0010100911E
:10156000C16941F08051C161C06900F080500090B4
:10157000052000F03BF80548416821F0E06141F0AA
:101580000071416008BD00000010024000000140F1
:10159000002809DB00F01F02012191404009800072
:1015A00000F1E020C0F8001170470000F0B40E4BCD
:1015B0001B680C46C3F30223C3F10705042D00D9B1
:1015C0000425191D072901D2002300E0DB1E012696
:1015D00006FA05F1491E214099409E40761E1640AC
:1015E0003143F0BC02F010BE0CED00E0064900F003
:1015F000070208684FF6FF03184040EA0220034A3A
:1016000010430860704700000CED00E00000FA0590
:1016100010B501460020284C04292FD00BDC0129ED
:1016200030D0022929D100F06BF96168C1F3813112
:10163000491C49001FE0082920D010291DD16168EC
:101640002268D20119D51D48C1F38342C903805CC9
:101650000AD56168194AC1F34041921E515C184A8B
:10166000B2FBF1F1484301E0164948436168490281
:1016700003D440000321B0FBF1F010BDBDE81040E1
:1016800000F04EB9226AC2F30121012903D1920769
:1016900001D5C80310BD022905D1626A920702D59F
:1016A00049F6404010BD0329FCD121688903F9D5D2
:1016B0004FF2244010BD000000100240128A0008C2
:1016C00000127A0000093D002DE9F8430546007834
:1016D000354CC00754D0E0690026C00008D4E0694A
:1016E00040F08050E061E069012600F080500090F9
:1016F0002E480168C90512D40168804641F4807102
:101700000160FFF7E3FE074605E000BFFFF7DEFEDE
:10171000C01B642823D8D8F80000C005F6D5206A7D
:1017200010F4407021D0A98801F4407181421CD08E
:10173000206A1F49012220F440700A6000220A60DA
:101740002062C00711D0FFF7C1FE074641F288387A
:1017500008E000BFFFF7BAFEC11B414502D90320D4
:10176000BDE8F883206A8007F4D5206A696820F410
:101770004070084320621EB1E06920F08050E061B3
:101780002878800705D56068A96820F440400843A0
:1017900060602878C00605D56068696920F480001B
:1017A000084360600020DBE700100240007000404A
:1017B000400442422DE9F0470F46050061D0434EF8
:1017C000306800F00700B84209D2306820F0070006
:1017D00038433060306800F00700B84251D12868C3
:1017E0003B4C810712D5400703D5606840F4E060A8
:1017F00060602878000703D5606840F4605060603E
:101800006068A96820F0F000084360602878C0078D
:1018100028D06868012810D02168022810D08907D4
:1018200000292EDA616821F0030101436160FFF7AE
:101830004DFE804641F288390DE021688903EFE7CB
:101840008901EDE7FFF742FEA0EB0801494502D907
:101850000320BDE8F0876068696800F00C00B0EB19
:10186000810FEFD1306800F00700B8420BD9306823
:1018700020F0070038433060306800F00700B842BD
:1018800001D00120E5E72878400705D56068E968C0
:1018900020F4E060084360602878000706D560689F
:1018A000296920F4605040EAC100606000F038F817
:1018B0006168084AC1F30311515CC84006490860D9
:1018C00006480068FFF722FE0020C2E70020024021
:1018D00000100240228A0008C4000020BC00002042
:1018E0000448054900684968044AC1F30221515C73
:1018F000C8407047C400002000100240328A00082F
:101900000448054900684968044AC1F3C221515C92
:10191000C8407047C400002000100240328A00080E
:101920000E4A51680E4801F00C03042B11D0082B0D
:101930000FD10C48C1F38343C903C05C0AD5516879
:10194000084AC1F34041921E515C054A5043B0FB26
:10195000F1F070470449484370470000001002400E
:1019600000127A00008A000800093D002DE9F84FB6
:10197000040070D02078C04DC00749D06868C0F31B
:101980008100012807D06868C0F38100022809D1CE
:101990006868C00306D52868800339D560680028C8
:1019A000E7D035E06068B0F5803F0BD010B1B0F5FE
:1019B000A02F11D0286820F480302860286820F4F7
:1019C000802002E0286840F480302860606890B190
:1019D000FFF77CFD06460AE0286840F48020286076
:1019E000F0E700BFFFF772FD801B642873D82868FA
:1019F0008003F7D50CE0FFF769FD064605E000BF60
:101A0000FFF764FD801B6428F0D828688003F7D4B2
:101A100020789A4E80074FF001094FF0000839D521
:101A2000686810F00C0F07D06868C0F381000228C6
:101A300009D16868C00306D42868800714D52069D6
:101A4000012808D110E02069B0B1C6F80090FFF776
:101A50003DFD074605E00AE1FFF738FDC01B0228FF
:101A6000C4D828688007F7D52868616920F0F80095
:101A700040EAC10028600DE0C6F80080FFF726FDAF
:101A8000074604E0FFF722FDC01B022823D8286880
:101A90008007F7D4207800072CD57948A169D9B1FF
:101AA000C0F80090FFF712FD074604E0FFF70EFDB7
:101AB000C01B02280FD8686A8007F7D571484FF419
:101AC000FA510068B0FBF1F0009000BF0098411E91
:101AD0000091FAD20EE080E0C0F80080FFF7F6FC3B
:101AE000074604E0FFF7F2FCC01B022875D8686ABD
:101AF0008007F7D42078400760D5E8690027C00048
:101B000008D4E86940F08050E861E869012700F0F6
:101B1000805000905C480168C90513D40168834671
:101B200041F480710160FFF7D1FC824606E000BFFE
:101B3000FFF7CCFCA0EB0A0064284ED8DBF80000CD
:101B4000C005F5D5E06801280AD008B1052813D0F2
:101B5000286A20F001002862286A20F0040002E0D0
:101B6000286A40F001002862E06841F2883B98B1A1
:101B7000FFF7ACFC82460BE0286A40F004002862C4
:101B8000EEE700BFFFF7A2FCA0EB0A0159455AD8C7
:101B9000286A8007F6D50CE0FFF798FC824605E03E
:101BA000FFF794FCA0EB0A0159454CD8286A80073E
:101BB000F6D41FB1E86920F08050E861E06988B38D
:101BC0006968C1F38101022944D00228C6F8608007
:101BD00004D0FFF77BFC044638E034E0FFF776FCE6
:101BE000074604E0FFF772FCC01B02282BD82868C8
:101BF0008001F7D4206AB0F5803F05D16868A168FC
:101C000020F4003008436860D4E90801084369689B
:101C100021F4741108436860C6F86090FFF756FC21
:101C2000044606E025E000BFFFF750FC001B022839
:101C300009D828688001F7D51BE000BFFFF746FCF4
:101C4000001B022802D90320BDE8F88F2868800114
:101C5000F4D40EE00128F7D06868226A00F48031DD
:101C6000914204D1616A00F47010884201D00120D1
:101C7000EAE70020E8E700000010024000004242CE
:101C800080044242C40000200070004010B5401E95
:101C9000B0F1807F01D3012010BD4FF0E0246061DE
:101CA0000F21601702F0B0FA0020A0610720206128
:101CB000002010BD7047704770B590F83C20012A95
:101CC0002CD0012480F83C40022280F83D2003689B
:101CD0005A689D6822F070060A6832435A60104BB9
:101CE00002689A420ED00F4B9A420BD0B2F1804F4D
:101CF00008D00D4B9A4205D00C4B9A4202D00C4BA7
:101D00009A4204D1496825F080031943916080F814
:101D10003D40002180F83C10084670BD022070BD97
:101D2000002C014000340140000400400008004045
:101D3000000C004010B5040003D094F83D0010B131
:101D400007E0012010BD002084F83C00204600F090
:101D50001FF8022084F83D00211D206801F05AFF81
:101D6000012084F8460084F83E0084F83F0084F89F
:101D7000400084F8410084F8420084F8430084F86D
:101D8000440084F8450084F83D00002010BD0000A8
:101D900008B500680B49884212D10B48C16941F06F
:101DA0000201C161C069002200F0020000901146EA
:101DB0001D20FFF7FBFBBDE808401D20FFF7E8BB37
:101DC00008BD0000000400400010024090F83D10E3
:101DD000012901D001207047022180F83D100168DF
:101DE000CA6842F00102CA6000680E4988420ED0FB
:101DF0000D4988420BD0B0F1804F08D00B49884282
:101E000005D00B49884202D00A49884204D1816832
:101E100001F00701062903D0016841F001010160CA
:101E200000207047002C01400034014000040040B5
:101E300000080040000C004070B5044690F83C00DB
:101E40000025012817D0012684F83C60022084F880
:101E50003D002068826822F0770222F47F4282608F
:101E60000868502838D00DDC20284FD005DC90B30E
:101E7000102811D14AE0022070BD302846D04028F9
:101E80000AD13BE060282FD070280DD0B0F5805FDC
:101E900003D0B0F5005F12D0012584F83D6000202A
:101EA00084F83C00284670BDCB68D1E90121206848
:101EB00001F003FF2068816841F0770109E0CB68F9
:101EC000D1E90121206801F0F8FE2068816841F421
:101ED00080418160E1E719E0CA684968206801F043
:101EE000C1FF5021206806E0CA684968206801F0F7
:101EF000CAFF6021206801F0EAFECEE7CA6849689F
:101F0000206801F0AFFF40212068F4E72268014615
:101F10001046F0E72DE9F0410D46040003D094F897
:101F20003D0018B108E00120BDE8F081002084F8F0
:101F30003C00204600F040F8022084F83D00206874
:101F4000816844F2070291438160211D206801F0FD
:101F500061FE226890689169166A2B68AF69034335
:101F600040F20330814341EA0721A868EF69084342
:101F70004FF6FC418843E96840EA0720014328699D
:101F80002F6A000140EA0730084369686D6926F04E
:101F9000220646EA0515294393602268906154F8A9
:101FA000460B0162012004F81F09E0752076E076F7
:101FB0002077A0750020B7E710B586B0002100910A
:101FC0000191029103911B4C03681B48C02101221F
:101FD000A34214D1C36943F00403C361C36903F08E
:101FE00004030493836943F00803836180690091CB
:101FF00000F00800049002926946104816E0104C68
:10200000A34215D1836943F400538361836903F4C8
:1020100000530493836943F0100383618069009146
:1020200000F010000490029269460648FFF74CF950
:1020300006B010BD0008004000100240000C014036
:10204000003401400010014070B590F83E60044635
:1020500090F83F5090F8423090F84320022021B190
:1020600004290ED0012E1BD114E0012E18D1012B12
:1020700016D184F83E0084F8420001220021206835
:1020800020E0012D0CD1012A0AD184F83F0084F808
:10209000430014E0012D03D1012B01D1012A01D00D
:1020A000012070BD84F83E0084F83F0084F84200AF
:1020B00084F8430001220021206801F0F1FD012293
:1020C0000421206801F0ECFD2068016841F0010165
:1020D0000160002070BD704770B50446006801695A
:1020E0004FF00005C943890715D4C168C943890762
:1020F00011D4E91E016101202077206880698007E2
:10210000204602D0FFF7E7FF04E000F0D1F82046B8
:1021100000F063F9257720680169C943490717D49E
:10212000C168C943490713D46FF00401016102205B
:1021300020772068806910F4407F204602D0FFF7A6
:10214000CAFF04E000F0B4F8204600F046F9257715
:1021500020680169C943090716D4C168C943090742
:1021600012D46FF008010161042020772068C06953
:102170008007204602D0FFF7AEFF04E000F098F899
:10218000204600F02AF9257720680169C943C9066D
:1021900017D4C168C943C90613D46FF01001016197
:1021A000082020772068C06910F4407F204602D0C4
:1021B000FFF791FF04E000F07BF8204600F00DF9F6
:1021C000257720680169C943C90708D1C168C94397
:1021D000C90704D1891E0161204600F059F9206821
:1021E0000169C943090609D4C168C943090605D470
:1021F0006FF0800101612046FFF75CFD20680169F6
:10220000C943490609D4C168C943490605D46FF0DA
:1022100040010161204600F0C5F920680169C94309
:1022200089060BD4C168C943890607D46FF0200121
:1022300001612046BDE87040FFF73DBD70BD000064
:1022400010B586B0002100910191029103910068C0
:102250001349884221D11348816941F00401816109
:10226000816901F004010491816941F008018161F3
:102270008069022400F008000490C020CDE9000429
:10228000694609480394FFF71FF80320CDE90004CD
:10229000694606480394FFF717F806B010BD000022
:1022A000000400400010024000080140000C014002
:1022B000704770B5044690F83C0000260D46012892
:1022C0000FD0012084F83C006AB1042A1DD0082AEE
:1022D0002FD00C2A3FD00126002084F83C00304645
:1022E00070BD022070BD206801F0FAFC2068816991
:1022F00041F0080181612068816921F00401816158
:10230000206881692A69114311E0206801F018FDF5
:102310002068816941F4006181612068816921F44C
:1023200080618161206881692A6941EA02218161B5
:10233000D2E7206801F03AFD2068C16941F0080148
:10234000C1612068C16921F00401C1612068C169CF
:102350002A69114311E0206801F05CFD2068C16921
:1023600041F40061C1612068C16921F48061C161EB
:102370002068C1692A6941EA0221C161ACE710B550
:10238000040003D094F83D0010B107E0012010BD17
:10239000002084F83C00204600F01EF8022084F85B
:1023A0003D00211D206801F035FC012084F8460025
:1023B00084F83E0084F83F0084F8400084F841002F
:1023C00084F8420084F8430084F8440084F845000F
:1023D00084F83D00002010BD7047704710B50446DA
:1023E000022249B104290ED0082913D094F84100E3
:1023F000012816D0012010BD94F83E000128F9D123
:1024000084F83E200FE094F83F000128F2D184F8D0
:102410003F2008E094F840000128EBD184F84020E8
:1024200001E084F841200122206801F039FC1349C1
:102430002068134A884201D0904203D1436C43F490
:1024400000434364206888420DD090420BD0B0F125
:10245000804F08D00B49884205D00B49884202D0F2
:102460000A49884204D1816801F00701062903D096
:10247000016841F001010160002010BD002C014005
:10248000003401400004004000080040000C0040FF
:102490002DE9F04700683549884264D1344C35480D
:1024A0002689761C26810768786ADFF8CC8000B21E
:1024B000A080D8F80010496A49420DB2E580FEF7C5
:1024C0000FF9DFF8B8904946FDF706FF2C49FDF7F4
:1024D00035FF2C49FDF732FF6FF00101FDF76CFF6E
:1024E0008246E0602846FEF7FBF84946FDF7F4FE19
:1024F0002549FDF723FF0025206101467D62D8F8BC
:1025000000004562F0072ED15046FDF78DFE691E92
:10251000FDF752FFFEF72CF91C4A1D4BFDF7FFFF9C
:102520001C4A1D4BFDF7FBFF07460E46A069FEF750
:102530001FF93A463346FDF74BFFFEF72CF9A06131
:102540005146164801F0A2F9FEF7E5F86063144819
:10255000216901F09BF9FEF7DEF80146A063606B8C
:1025600000F0EFFE2581BDE8F08700000004004088
:102570000000002068020020B00200200000C842D5
:102580000000F041000050410000C3447B14AE47FE
:10259000E17A943FBA490C022B87A63F38360020D7
:1025A0005C3600207047704770470000F8B501683E
:1025B00004460868CA684B6910F00F0F4FF0000519
:1025C0005AD003F0010602F49077374365D0C10773
:1025D00005D0D10503D5616C41F00101616441076B
:1025E00005D5D90703D0616C41F002016164810710
:1025F00005D5D90703D0616C41F00401616401077E
:1026000007D502F02001314303D0616C41F008018D
:102610006164616C00293BD0800604D5900602D528
:10262000204601F078FC20684069616CC0F380109E
:1026300001F00801014320462BD001F045FC206841
:102640004069400621D52068143050E8001F21F071
:10265000400140E80012002AF5D1E06BA8B16D49B5
:102660004163E06BFEF786FD002811D0E06B416B03
:1026700001B0BDE8F040084783060ED593060CD59F
:102680002046BDE8F84001F046BC2046FFF78CFF2D
:10269000F8BDFFF789FF6564F8BD266B2023012E86
:1026A0007CD1C6067AD5D60678D5086848680090E9
:1026B00048694FF00206400640D5E16B0868406863
:1026C0000004000CE8D0A28D8242E5D9E08588693B
:1026D00020282DD020680C3050E8001F21F4807194
:1026E00040E80012002AF5D12168143151E8000FAA
:1026F00020F0010041E80002002AF5D120681430E2
:1027000050E8001F21F0400140E80012002AF5D1F6
:1027100084F84230256320680C3050E8001F21F017
:10272000100140E80012002AF5D1E06BFEF7FEFC34
:102730006663A08DE18D401A81B22AE0A08DE18D03
:10274000401A81B2E08D0028A6D00029A4D02268CA
:102750000C3252E8000F20F4907042E80007002F7E
:10276000F5D12068143050E8002F22F0010240E833
:102770000027002FF5D184F84230256320680C3003
:1027800050E8002F22F0100240E80023002BF5D182
:1027900066632046FFF707FFF8BDFFE705062BD568
:1027A000150629D594F841002128F5D1A068B0F587
:1027B000805F01D12069B0B1206A411C216221688B
:1027C00000784860E08C401E0004000CE084E3D1F7
:1027D0002068C16821F08001C1602068C16841F0B3
:1027E0004001C160D8E7206A0088C0F30800486053
:1027F000206A801C2062E5E74006CDD55006CBD587
:10280000CA68204622F04002CA6084F8413000F0D5
:1028100006FAC1E7B93E000870B5040004D094F888
:102820004100002510B106E0012070BD84F8405041
:10283000204600F023F8242084F841002068C16875
:1028400021F40051C160204601F0C6FB20680169F7
:1028500021F4904101612068416921F02A01416120
:102860002068C16841F40051C1606564202084F88B
:10287000410084F842006563002070BD30B585B02A
:1028800000240094019402940394324D036832486A
:1028900002210322AB422ED1C36943F48013C361EA
:1028A000C36903F480130493836943F010038361C5
:1028B000836903F010030493836943F02003836169
:1028C0008069039200F020000490C802CDE9000165
:1028D00069462248FEF7F8FC0420CDE90004694669
:1028E0001F480294FEF7F0FC012211463520FEF746
:1028F0005DFE352029E01B4DAB4228D1836943F4AE
:1029000080438361836903F480430493836943F0C4
:10291000040383618069039200F004000490681549
:10292000CDE90001104D69462846FEF7CDFC28157B
:10293000CDE90004694628460294FEF7C5FC012251
:1029400011462520FEF732FE2520FEF721FE05B0B8
:1029500030BD000000500040001002400010014057
:102960000014014000380140000801402DE9F843FF
:10297000044690F84200994616460D46202802D09B
:102980000220BDE8F883ADB1A6B100206064222129
:1029900084F842102063FEF799FDA6858046E685FF
:1029A000A0684FF48057B84201D1206920B12E466B
:1029B000002526E00120E4E7002622E0434600222D
:1029C00020212046CDF8009001F07DFB08B10320C6
:1029D000D7E726B1A068B8421BD038B108E020681C
:1029E0004068C0F3080025F8020B07E0206980B1B9
:1029F0002068406800F07F0006F8010BE08D401E63
:102A0000E085E08D0028D9D1202084F84200002004
:102A1000B7E720684068EFE790F84230202B01D0FC
:102A20000220704721B11AB10023036301F030BBCB
:102A3000012070472DE9F0474D4988426FD14E4C37
:102A40004C482246267857784A4A01780025127861
:102A50004A484B4B7A404FF0030C052E4ED92A2E94
:102A600023D2B6FBFCF52746E14638780CFB156C03
:102A7000401CBF78C5B2DFF8048107EB4700404433
:102A8000BCF1000F0BD0B6FBF9F809FB1866012E5C
:102A900007D001727F1CA7702570985C4AE0C18046
:102AA000FAE7C68806EB0121F9E72A3E052E42D255
:102AB000DFE806F003060C0F150041852B2053E0DC
:102AC000458D05EB012141852C204DE081852D2090
:102AD0004AE0858D05EB012181852E2044E080F8B8
:102AE0002E10B94202D102F0DBFB03E02F21234874
:102AF000FDF782FB65702570A5701CE0062E1AD2CA
:102B0000DFE806F0030E20242A2D542905D1017098
:102B10000120207087F054000BE065700BE025E089
:102B20002C2901D02570F8E741700220207087F031
:102B30002C00185C6070BDE8F04701220D490C487C
:102B4000FFF76ABF418084F800C0A6E7458805EB1F
:102B500001214180042007E08180052004E0858870
:102B600005EB012181800620207096E7BDE8F08703
:102B7000F80200203D000020000000200836002060
:102B8000547200082DE9F843044690F841001F46AE
:102B900016460D46202802D00220BDE8F8837DB1FC
:102BA00076B100206064212084F84100FEF78EFC9D
:102BB000A6848046E684A068B0F5805F02D003E07A
:102BC0000120EAE7206910B12E4600250EE000261C
:102BD0000CE08021204601F076FAA0B9AEB116F8DB
:102BE000010B21684860E08C401EE084E08C434685
:102BF0004FF0000200970028EBD14FF04001204633
:102C000001F061FA30B10320C7E735F8020BC0F3D9
:102C10000800E6E7202084F841000020BDE7704767
:102C2000FEE770B50D46044600F0C0F8204600F0FF
:102C30008DF800F003F9284600F088F800F0FEF85F
:102C400000F0B4F8641CE0B200F080F800F0F6F890
:102C5000002000F045F8044600F0D0F8204670BD92
:102C600070B50D4C0025C4F8B8510C48016821F02E
:102C700070410160016841F040510160C4F8BC51ED
:102C8000012004F5DC7400F063FF0120206000F0F7
:102C90005FFF256070BD000000802142040C0140F0
:102CA00070B50D4C0025C4F8B8510C48016821F0EE
:102CB00070410160016841F0405101600126C4F893
:102CC000BC61304604F5DC7400F042FF2660012050
:102CD00000F03EFF256070BD00802142040C0140E1
:102CE0002DE9F047814617480024016821F0704122
:102CF0000160016841F000410160134E25462746FE
:102D00004FF00108C6F8B871022000F021FFC6F8A4
:102D1000B8816006040ED6F83C0108B1641CE4B228
:102D2000022000F015FF6D1CEDB2082DEAD3B9F1B9
:102D3000000F02D0FFF794FF01E0FFF7B1FF20463C
:102D4000BDE8F087040C0140008021422DE9F041EC
:102D500006461448016821F070410160016841F0A5
:102D600040510160104C0027C4F8B8713D464FF047
:102D70000108F009C4F8BC017006060E012000F03D
:102D8000E7FEC4F8B881012000F0E2FEC4F8B87193
:102D9000012000F0DDFE6D1CEDB2082DE9D3BDE889
:102DA000F0810000040C01400080214270B5114800
:102DB000016821F070410160016841F040510160FB
:102DC0000D4C0120C4F8BC01D4F83C1149B1C4F841
:102DD000B80100F0BDFE0025C4F8BC51D4F83C0198
:102DE00008B1002070BD012000F0B2FEC4F8B85157
:102DF000012070BD040C0140008021420D4810B537
:102E0000016821F070410160016841F040510160AA
:102E1000094C0020C4F8B801C4F8BC01012004F535
:102E2000DC7400F095FE012020606060BDE8104079
:102E300000F08EBE040C01400080214270B51348A2
:102E40000024016821F070410160016841F00041F7
:102E500001600F4D0126C5F8BC61304600F078FED8
:102E6000C5F8B86107E0641CE4B2322C03D9FFF75F
:102E7000C5FF002070BD012000F06AFED5F83C01BE
:102E80000028F0D1C5F8B801012070BD040C014044
:102E90000080214210B51446FFF7C3FE20700120C8
:102EA00010BDF8B515461C460E4607466A46FFF7A4
:102EB000F1FF01209DF80010A8400CB1084301E08B
:102EC00021EA0000C2B28DF800203146384600F0F9
:102ED0002BF8F8BD2DE9F84314461D460F468046F1
:102EE0006A46089EFFF7D6FF00281BD0611CFF2012
:102EF000C4F1080200FA01F12A44521ED0400143F5
:102F0000C5F108008640F2B2C4F10700C2409DF846
:102F10000000084010438DF80000C2B23946404618
:102F200000F002F8BDE8F88307B502AB012200F01B
:102F300001F80EBD2DE9F0411E46154688460746AC
:102F40000024FFF733FF3846FFF700FFFFF776FF57
:102F50004046FFF7FBFEFFF771FF06E0305DFFF72D
:102F6000F5FEFFF76BFF641CE4B2AC42F6D3FFF74B
:102F700045FF0120BDE8F08110B5022000F011F8F6
:102F8000032000F020F8002000F014F8002000F0EA
:102F90002FF8002000F026F8BDE81040002000F0D7
:102FA0001BB808B50323009002226B21D020FFF745
:102FB00091FF08BD08B50223009004221C21D020F7
:102FC000FFF788FF08BD08B50223009004221B21EB
:102FD000D020FFF77FFF08BD034601223721D02014
:102FE000FFF75FBF034605226A21D020FFF759BFD4
:102FF000034606226B21D020FFF753BF3EB50021C8
:103000001148009101910F4A0291026081600173A1
:10301000017501244FF460220461C2614160FDF733
:10302000C9FE08B1FDF741FE0B20CDE900040220E6
:10303000029069460448FDF73BFE002801D0FDF7E9
:1030400034FE3EBD00280140F00100202DE9F04192
:1030500086B000252F48009501950295039581695A
:1030600041F010018161816901F0100104918169D1
:1030700041F020018161816901F0200104918169A1
:1030800041F004018161816901F0040104918169C9
:1030900041F00801816180691F4F00F00800049031
:1030A000002244F204013846FEF70AFADFF86C8089
:1030B00000224FF440414046FEF702FA0122382137
:1030C0004046FEF7FDF94FF48040012402268DE8CA
:1030D000710069463846FEF7F7F80420CDE9000490
:1030E000CDE9024669463846FEF7EEF84CF2380064
:1030F0008DE8710069464046FEF7E6F860020090F0
:103100000748CDE9010469464046FEF7DDF806B000
:10311000BDE8F0810010024000100140000C0140A9
:103120000000211010B58EB0002407940894099473
:103130000A940B941C2168460C94FDF75DF82B480B
:10314000294901604721C0E9011442F20F71C0E929
:10315000031480218161FEF7EDFD08B1FDF7A5FDA7
:103160004FF48050079007A92048FEF765FE08B18C
:10317000FDF79BFD1D48FFF702F908B1FDF795FD2E
:103180000B940BA919480C94FEF796FD08B1FDF7B6
:103190008CFD6020CDE900040294002269461348AA
:1031A0000494FFF786F808B1FDF77FFD0422694615
:1031B0000E48FFF77EF808B1FDF777FD0822694653
:1031C0000A48FFF776F808B1FDF76FFD0C22694653
:1031D0000648FFF76EF808B1FDF767FD0348FFF7F3
:1031E0002FF80EB010BD00000004004020020020A7
:1031F00010B58CB024216846FCF7FEFF0024174868
:10320000099415490A94C0E900144FF6FF71C0E90A
:1032100002418021046181610320CDE90004012085
:10322000CDE9020406210491CDE90540CDE907412D
:1032300069460A48FEF76EFE08B1FDF736FD0994AF
:1032400009A906480A94FEF737FD002801D0FDF7CA
:103250002CFD0CB010BD00000008004068020020EA
:1032600010B58CB024216846FCF7C6FF002417482F
:10327000099415490A94C0E900144FF6FF71C0E99A
:10328000024180210461C0E905410320CDE9000429
:103290000120CDE9020406210491CDE90540CDE9E4
:1032A000074169460948FEF735FE08B1FDF7FDFC08
:1032B000099409A905480A94FEF7FEFC002801D0EC
:1032C000FDF7F3FC0CB010BD00340140B00200204B
:1032D0000C4810B50A4901604FF4E131416000210A
:1032E00081600C22C160C0E904128161C161FFF7F5
:1032F00093FA002803D0BDE81040FDF7D6BC10BDFE
:1033000000500040F80200200C4810B50A49016046
:103310004FF416514160002181600C22C160C0E968
:1033200004128161C161FFF777FA002803D0BDE87C
:103330001040FDF7BABC10BD00380140400300202A
:10334000FEE710B50B4600F01EFF0246184600F0DF
:103350001AFF0446104600F005F82046BDE810406C
:1033600000F012B80749002300280A6803DD506303
:103370000868836370475363FADA0968C0F1000094
:103380008863704720020020424208480023002A38
:10339000016803DDCA63006803647047CB63FADA2F
:1033A0000068C2F1000101647047000020020020A3
:1033B000FEE7000010B40021084B0A465FF0000051
:1033C00003EBC004401CC0B262548028F8D3491CEF
:1033D000C9B20829F2D310BC00F096B888040020C6
:1033E00010B57F2816D83F2914D80723A3EBD103A3
:1033F00001F00701C1F107040121A140064CDBB235
:1034000004EBC000002AC25CC9B201D00A4300E04C
:103410008A43C25410BD00008804002010B5394C06
:103420000020C4F89001642004F5C874FDF73AFF49
:10343000012020600021AE2000F0A8F90021D52055
:1034400000F0A4F90021502000F0A0F90021A820EC
:1034500000F09CF900213F2000F098F90021D320D2
:1034600000F094F90021084600F090F90021402076
:1034700000F08CF900218D2000F088F90021142043
:1034800000F084F90021202000F080F900210220C2
:1034900000F07CF90021A12000F078F90021C02083
:1034A00000F074F90021DA2000F070F900211220F8
:1034B00000F06CF90021812000F068F90021EF2074
:1034C00000F064F90021D92000F060F90021F1201A
:1034D00000F05CF90021DB2000F058F900213020D9
:1034E00000F054F90021A42000F050F90021A6209A
:1034F00000F04CF90021AF2000F048F9BDE8104081
:10350000FFF758BF0080214270B5114E002400BF64
:1035100004F1B000C0B2002100F038F900210846E3
:1035200000F034F90021102000F030F95FF00005C0
:1035300006EBC5000121005D00F028F96D1CEDB21D
:10354000802DF5D3641CE4B2082CE1D370BD0000DB
:10355000880400207CB54FF480613A48FCF74CFEAB
:10356000394C2069FDF704F905460E46E068FDF781
:10357000FFF8CDE9005602460B4634A1384800F06A
:103580001BFE0021364A084600F0E0F8A069FDF76E
:10359000EFF802460B4633A1314800F00DFE304AE9
:1035A0000A21002000F0D2F801F04AFBFDF7E0F814
:1035B00002460B462FA12A4800F0FEFD284A14219E
:1035C000002000F0C3F82E480068FDF7D1F802464D
:1035D0000B462CA1224800F0EFFD214A1E210020BD
:1035E00000F0B4F82A480068FDF7C2F802460B461E
:1035F00028A11B4800F0E0FD194A2821002000F016
:10360000A5F827480068FDF7B3F802460B4625A148
:10361000134800F0D1FD124A3221002000F096F844
:10362000A06AFDF7A5F802460B4621A10C4800F060
:10363000C3FD0B4A3221402000F088F8BDE87C40F1
:10364000FFF762BF880400200000002076313A2096
:1036500025322E326676323A2025322E326600002E
:10366000D00100204D696C656167653A2025322ED6
:1036700032660000553A2025322E32665600000090
:1036800094000020523A2025322E316600000000BE
:1036900098000020503A2025322E316600000000AC
:1036A0009C000020593A2025322E3166000000008F
:1036B000443A2025322E3266000000002DE9FF4FEB
:1036C000203A1F460C46894602F0FF0A0025DDF825
:1036D00034B032E00C2F09D01A4901EB0A104FF038
:1036E0000008465D300607D55A4609E016490AEB40
:1036F0004A0001EB8000F2E7BBF1000F12D000227C
:1037000021460098FFF76CFE7006641C060EE4B2BA
:10371000A4EB0900B84207D100984C46401CC0B247
:10372000009008E00122EBE708F1010000F0FF083B
:10373000B8F1080FD6D36D1CEDB2BD42CAD3BDE8B7
:10374000FF8F0000C877000854730008F8B51646CC
:103750000D460446012714E07A2C02D900241035C6
:10376000EDB23A2D03D900242546FFF723FE00973A
:1037700032780C2329462046FFF7A0FF0834E4B234
:10378000761C30780028E7D1F8BD000070B5002520
:103790000E4A012311B1C2F88C3101E0C2F88C51FC
:1037A0000B4C0021C4F8B851060602D5C2F894317A
:1037B00001E0C2F89451C4F8B8314006491C000E2B
:1037C000C9B20829EED3C2F88C3170BD0080214205
:1037D0000000224223490020234A08604860886094
:1037E000C86008614A610862204AC1E906202431A4
:1037F0001F4A086048608860C86008614A610862C2
:103800001C4AC1E906206C3101F1100C08604860C7
:1038100088604FF07C52184BC8608CE80D00C8617E
:10382000203101F1100C086048608860C8608CE8A5
:103830000D00C8616839114A086048608860C86036
:10384000C1E904020E4AC1E9060224310D4A0860AA
:1038500048608860C860C1E9040288610A48C8619C
:103860007047000038360020000096440000C84130
:1038700000601F4500000C429A99993E0AD7A33C6C
:10388000CDCC4C3E0AD7A33DCDCCCC3D2DE9F0416B
:103890000446006810F0FF4F2ED06160FCF716FD63
:1038A000A0602269054601461046FCF7BDFC13499D
:1038B0002061884202DC1249884200D92161E76810
:1038C00028463946FCF702FDE169FCF705FD06468E
:1038D0002169A069FCF700FD804629466069FCF774
:1038E000FBFC4146FCF7A0FC3146FCF79DFC27623F
:1038F000E5606060BDE8F0810020FBE700007A44ED
:1039000000007AC4704700002DE9F04F8FB0714C71
:103910000CAD70490DAB263108AA881FCDE90045D2
:1039200001F040FF0028F4D12088C0057ED508981A
:10393000FCF7D6FE6FF01D063146FCF73DFD8046D4
:1039400060600998FCF7CCFE3146FCF735FD074670
:10395000A0600A98FCF7C4FE3146FCF72DFD054631
:10396000E0600B98FCF7BCFE3146FCF725FD0646EF
:10397000206101214046FCF71FFD2946FCF7ACFC05
:1039800005464FF0404841463846FCF7A5FC314615
:10399000FCF7A2FC2946FCF747FCFCF7E9FE01F026
:1039A00077F9DFF834A14FF066394A465346FCF701
:1039B000B6FDC9F1000B5A46484BFCF7AAFDFCF7CF
:1039C000EAFEA061E06801210546FCF7F5FC294606
:1039D0000390FCF781FC0546A06841460646FCF7CB
:1039E0007BFC3146FCF778FC2946FCF76FFC4FF076
:1039F0007E51FCF719FCFCF7BBFE07460D46012182
:103A00006068FCF7D9FC3146FCF766FC0646039873
:103A10002169FCF761FC3146FCF706FCFCF7A8FEC7
:103A20003A462B4601F07CFB4A4600E04EE0534606
:103A3000FCF775FD4FF03332294BFCF76AFDFCF7BC
:103A4000AAFE6061216903910846FCF745FCE16824
:103A5000074608460291FCF73FFCA1680646084667
:103A60000191FCF739FC6168054688464046FCF741
:103A700033FC2946FCF7D8FB3146FCF727FC3946D6
:103A8000FCF724FCFCF774FE06460D4640460399FD
:103A9000FCF722FC0746DDE90101FCF71DFC394675
:103AA000FCF7C2FB0121FCF787FCFCF761FE324604
:103AB0002B4601F035FB4A465346FCF730FD5A468B
:103AC000084BFCF785FCFCF766FEE0610FB0BDE833
:103AD000F08F00008000002066A64C409999B93F05
:103AE00033331F409999204070470000401EB0F1C9
:103AF000807F01D3012070474FF0E0214861054AE3
:103B0000F02082F8140D0020886107200861002051
:103B1000704700000FE000E001B50C484FF47A71E7
:103B20000068B0FBF1F0FFF7E1FF00204FF0E0216B
:103B300003E00A69D203FCD5401C009A9042F8D3F6
:103B4000086920F00100086108BD0000C4000020E1
:103B500001B50B480B490068B0FBF1F0FFF7C6FF59
:103B600000204FF0E02103E00A69D203FCD5401C9D
:103B7000009A9042F8D3086920F00100086108BD5E
:103B8000C400002040420F00FDF7A6BC30B595B040
:103B900028216846FCF730FB14210AA8FCF72CFB0F
:103BA00018210FA8FCF728FB01210804CDE900101B
:103BB0000025029502240491CDE907404FF4E0105E
:103BC00009906846FDF7D2FE08B172B6FEE70AA971
:103BD0000F2081E831004FF48060CDE90D0502210E
:103BE0000AA8FDF7E7FD08B172B6FEE74FF4004002
:103BF00011900F940FA8FDF767FD002801D072B651
:103C0000FEE715B030BD70470148FEF765BA000009
:103C100020020020F0B502681C4B1D4D1D4E1E4FAA
:103C20001E4C4FF0804C984209D0A04207D060450E
:103C300005D0A84203D0B04201D0B84204D122F04E
:103C4000700E4A6842EA0E02984209D0A04207D09C
:103C5000604505D0A84203D0B04201D0B84203D19C
:103C600022F44075CA682A434D6922F080022A4333
:103C700002608A68C2620A688262984201D0A042E9
:103C800001D10969016301214161F0BD002C0140AE
:103C90000004004000080040000C004000340140D7
:103CA00010B501F01F030121046A99408C4304629E
:103CB000016A9A401143016210BD10B5846842EA5E
:103CC000032224F47F440A432243826010BD8268A9
:103CD00022F070020A4342F0070181607047000041
:103CE000F0B5036A026A22F0010202624268846946
:103CF000124E24F073050C682C4323F002058B68E8
:103D00002B430D4DA84201D0B04205D123F0080746
:103D1000CB683B4323F00403A84201D0B04205D155
:103D20004D6922F4407215438A692A4342608461D6
:103D3000496841630362F0BD002C0140003401403A
:103D4000F0B5026A036A23F01003036243688469D2
:103D50000D6824F4E64444EA05248D6822F020022C
:103D600042EA05120F4D104EA84201D0B04206D1D2
:103D7000CF6822F0800242EA071222F04002A842F5
:103D800001D0B04207D14D6923F4406343EA850373
:103D90008D6943EA850343608461496881630262F7
:103DA000F0BD0000002C014000340140F0B5026A73
:103DB000036A23F4807303624368C46922F40072C7
:103DC00024F073050C68124E2C438D6842EA0522DC
:103DD0000E4DA84201D0B04206D1CF6822F4006255
:103DE00042EA072222F48062A84201D0B04207D101
:103DF0004D6923F4405343EA05138D6943EA0513E3
:103E00004360C4614968C1630262F0BD002C014097
:103E10000034014030B5046A026A22F48052026222
:103E20004268C3690D6823F4E64343EA05238D68BD
:103E300024F4005444EA0534084DA84202D0084D49
:103E4000A84204D14D6922F4804242EA85124260C0
:103E5000C36149680164046230BD0000002C014068
:103E60000034014010B5036A046A24F001040462BE
:103E7000846924F0F00444EA021423F00A020A439D
:103E80008461026210BD10B5036A046A24F0100454
:103E90000462846923F0A00324F4704444EA0232EB
:103EA00043EA01118261016210BD00000148FEF782
:103EB0007DBB0000F802002010B5406A0021C185DA
:103EC000C184FEF771FB10BD01680C3151E8002F71
:103ED00022F4907241E80023002BF5D101681431DF
:103EE00051E8002F22F0010241E80023002BF5D118
:103EF000016B012909D101680C3151E8002F22F032
:103F0000100241E80023002BF5D1202180F8421057
:103F100000210163704708B590F84210222901D0B2
:103F2000022008BD82684FF480539A4201D1016992
:103F300021B1816A9A421BD04AB10AE00268816AC3
:103F40005268C2F308020A80816A891C08E002698B
:103F500072B10268526802F07F020A70816A491CDD
:103F60008162C18D491E0904090CC18503D01BE083
:103F700002685268F1E70168CA6822F02002CA604C
:103F80000168CA6822F48072CA6001684A6922F036
:103F900001024A61202180F8421000214163026B36
:103FA000012A03D0FEF746FD002008BD0163016829
:103FB0000C3151E8002F22F0100241E80023002BC1
:103FC000F5D101680A68D20602D50A6849680091ED
:103FD000818DFEF7E8FAE7E770B5044600680169ED
:103FE000E26821F44051114301612169A06808434E
:103FF000616908432168CA6841F20C639A4302432D
:10400000CA6020684169A26921F44071114341618D
:104010001E492068884202D1FDF772FC01E0FDF7DD
:104020005FFC00EBC00101EB0012606864218000BE
:10403000B2FBF0F3B3FBF1F36FF018067343B2FB7E
:10404000F0F5B2FBF0F605EB8305322303EB051523
:10405000B5FBF1F5B6FBF1F605F0F00505EB06153D
:10406000B2FBF0F6B2FBF0F0B0FBF1F06FF018022B
:10407000504306EB800003EB0010B0FBF1F0216829
:1040800000F00F002844886070BD00000038014037
:1040900081628285C28500214164222180F842101C
:1040A000016921B10168CA6842F48072CA6001687E
:1040B0004A6942F001024A610068C16841F020018A
:1040C000C160002070472DE9F041984617460E4622
:1040D0000446069D27E0681C25D02DB1FDF7F6F9B2
:1040E000A0EB0800A8421ED920680C3050E8001F41
:1040F00021F4D07140E80012002AF5D12068143074
:1041000050E8001F21F0010140E80012002AF5D11B
:10411000202084F8410084F84200002084F8400008
:104120000320BDE8F0812068006836EA000004D072
:104130000020B842CFD00020F3E70120F9E70000CB
:104140000D4810B500680068800610D50B4A10783D
:10415000FF2801D3002010700949C0B20144401C5F
:1041600010704FF47A7301220348FEF7FFFBBDE89D
:1041700010400148FEF71ABA400300203C0000201E
:1041800088030020FEE742F21071884202DA4942B9
:10419000884200DC084670470FB4054B10B503A9F0
:1041A000044A029800F070F910BC5DF814FB00009E
:1041B000395E0008C80000200FB4084B10B504A9F0
:1041C00002AA039800F060F9044602A9002000F05A
:1041D000F2FC204610BC5DF814FB0000B74B000851
:1041E000490050EAC12018BF04204A0D18BF40F012
:1041F000010040F2FF72B2EB515F08BF40F00200D5
:10420000012808BF052070470907090E002804DBB4
:1042100000F1E02080F80014704700F00F0000F17A
:10422000E02080F8141D70472DE9F0414F1E00EB8F
:10423000C7010446D1E9000115461E4637F00602C3
:104240000DD02A463346FCF76AF97F1E04EBC703FC
:10425000D3E90023FCF7BCF837F00602F1D1022FB6
:1042600025D0042F13D0062F18BFBDE8F0812A46B1
:104270003346FCF754F9D4E90A23FCF7A9F82A4697
:104280003346FCF74CF9D4E90823FCF7A1F82A4699
:104290003346FCF744F9D4E90623FCF799F82A469B
:1042A0003346FCF73CF9D4E90423FCF791F82A469D
:1042B0003346FCF734F9D4E90223FCF789F82A469F
:1042C0003346FCF72CF9D4E90023BDE8F041FCF7B4
:1042D0007FB80122FCF782BBFCF77AB800221346B4
:1042E00010461146FCF78DB9024A00201107FCF771
:1042F00075BB000001FDFFFF02E008C8121F08C1E6
:10430000002AFAD170477047002001E001C1121F56
:10431000002AFBD170470000014908607047000087
:10432000CC0000202DE9FF5FDDE90220010DDDF862
:1043300038B0024318D044F61050A1F2FF31414387
:104340000D140F98012820D0A5EB0B00401C5FEA4C
:10435000000A4FF00004474EDFF81C91A04650467B
:1043600016D5CAF1000728E00F98012443A20128BE
:1043700008D0002100980F9BC0E90021C0E902434A
:10438000BDE8FF9F6FEA0B01F4E7CBF10000DEE729
:10439000074612E0F80707D0224633464046494612
:1043A000FCF7BDF88046894622463346104619463A
:1043B000FCF7B5F804460E467F10002FEAD1DDE980
:1043C0000201BAF1000F42464B4602DAFCF7A7F8A9
:1043D00001E0FCF716F904460E460022284BFCF7D4
:1043E0002DFB03D84FF0FF30014607E00022254B9C
:1043F00020463146FBF7ECFFFCF707FB102409E0F1
:10440000002C0ADB0A220023FCF702FA019B30325F
:104410001A55641E50EA0102F2D1641C019AC4F1DB
:10442000110314440F9A012A03D0012208430DD12D
:104430000AE0084304D000204FF0110B0F9080E7F2
:10444000A3EB0B056D1E0DE05B4504DD4FF0000294
:1044500005F1010504E003DA4FF00002A5F10105C2
:10446000002AECD000980F99C0E90231C0E900455C
:1044700086E70000000024400000F03F300000000C
:104480000000F0430000E03F2DE9FF4F95B09B4650
:104490008946064600250FE2252877D100242746C5
:1044A000F84A0121059400E0044316F8013F203B3F
:1044B00001FA03F01042F7D130782A2811D06FF0BA
:1044C0002F033078A0F13002092A16D8059A44F05B
:1044D000020402EB820203EB42021044761C0590B8
:1044E000EFE759F8042B0592002A03DA504244F40E
:1044F0000054059044F00204761C30782E2816D122
:1045000016F8010F44F004042A280DD06FF02F0292
:104510003078A0F13003092B09D807EB870302EBB1
:104520004303C718761CF3E759F8047B761C3078F0
:104530006C280FD006DC4C2817D068280DD06A28CC
:1045400014D104E0742810D07A280FD10DE044F47F
:1045500000140AE044F4801401E044F4401472783A
:10456000824202D104F58014761C761C30786628CD
:104570000BD013DC582877D009DC002875D04528EB
:10458000F6D04628F4D047281AD19DE118E06328D8
:1045900035D0642879D0652812D195E1702873D080
:1045A00008DC6728F1D069286FD06E280DD06F28FD
:1045B00006D1B5E073282CD0752875D0782874D032
:1045C0005A46179990476D1C75E1C4F302500228B2
:1045D00009D003280DD0D9F8001004280DD00D60A3
:1045E00009F1040967E1D9F80010EA17C1E900529E
:1045F000F6E7D9F800100D80F2E70D70F0E719F832
:10460000041B8DF8001000208DF80100EA460120FF
:1046100003E059F804AB4FF0FF3061074FF00001A1
:1046200002D40DE008F101018846B9420FDA804555
:10463000F8DB1AF808100029F4D108E008F10101AC
:1046400088468142FADB1AF808100029F6D105984D
:104650005B46A0EB080721463846179A00F094FA0B
:10466000284400EB080507E04DE029E10DE01AF8C9
:10467000010B5A4617999047B8F10108F7D25B46EB
:1046800021463846179A13E142E00A220092C4F309
:1046900002524FF0000A022A08D059F804CB032A2C
:1046A0004FEAEC710AD00DE029E02AE009F1070198
:1046B00021F00702F2E802C1914609E00FFA8CFCF2
:1046C0004FEAEC71042A03D14FFA8CFC4FEAEC71EB
:1046D000002907DA0A460021DCF1000C61EB020137
:1046E0002D2202E0220504D52B228DF80420012280
:1046F00003E0E20701D02022F7E7904659E00A21C3
:1047000002E010220DE010214FF0000A00910BE0B2
:1047100010224FF0000A44F004040827009203E03E
:1047200008224FF0000A0092C4F30252022A05D078
:1047300059F804CB0021032A08D009E009F1070148
:1047400021F00702F2E802C1914605E01FFA8CFC55
:10475000042A01D10CF0FF0C4FF00008220728D5E5
:10476000702806D0009B83F0100353EA0A0305D09B
:104770000EE040228DF80420012208E05CEA0102EC
:1047800006D030228DF804208DF8050002229046D4
:10479000009B83F0080353EA0A030AD15CEA010292
:1047A00001D1620705D530228DF804204FF00108B1
:1047B0007F1E582804D034A003900EA802900DE06C
:1047C00036A0F9E753466046009AFCF721F8844684
:1047D0000398825C0298401E029002705CEA01001D
:1047E000F0D1029806A9081A00F1200A600702D544
:1047F00024F4803400E00127574502DDA7EB0A00CE
:1048000000E0002000EB0A01009005984144401AA6
:104810000590E00306D45B462146179A059800F000
:10482000B3F90544002706E001A85A46C05D179970
:1048300090476D1C7F1C4745F6DBE0030CD55B46BB
:104840002146179A059800F09FF9054404E03020AE
:104850005A46179990476D1C0099481E00900029F0
:10486000F5DC08E0029802995A460078491C02914A
:10487000179990476D1CBAF10001AAF1010AF1DC09
:1048800065E1000009280100303132333435363714
:10489000383961626364656600000000303132338C
:1048A000343536373839414243444546000000002C
:1048B00000F058F90544761C307800287FF4ECAD00
:1048C00019B02846BDE8F08F620700D4062709F129
:1048D000070222F0070CFCE80223E14603F000483F
:1048E0005FEA080C02D00FF2702C0DE05FEA045C66
:1048F00002D50FF2682C07E05FEAC47C02D00FF209
:10490000602C01E0AFF2700C4FF0FF3823F0004351
:10491000CDF850C065280CD006DC452809D04628C3
:104920001DD047283DD13DE0662818D067287ED1AC
:1049300038E00021112F01DB112000E0781CCDE9C7
:10494000000106A90EA8FFF7EDFCDDE90F010E9AA4
:1049500003910021009207F1010A04914DE04FF00C
:1049600000400097CDE9011006A90EA8FFF7DAFC78
:10497000DDE90F0203920E9B11990022DDF80CA0D5
:104980000093049211B9791C00EB010AB7EB0A00FD
:1049900004D4C0F1FF3007F1010A0490AAEB07002C
:1049A000019044E0012F00DA01270021112F01DDE1
:1049B000112000E03846CDE9000106A90EA8FFF756
:1049C000B1FCDDE90F010E9A0391002104910092E0
:1049D000BA4621070CD40399514500DA8A46BAF148
:1049E000010F05DD009AAAF10101515C302908D0C0
:1049F000B84202DA10F1040F06DA0121CDE9011004
:104A000015E0AAF10101E9E7002805DC0499014459
:104A10000491AAEB000102E0411C514500DD8A46E9
:104A20000499401A401C01904FF00040029020076A
:104A300004D40198504501DBCDF8048000208DF8A6
:104A40004F0002980DF14F07B0F1004F25D02B20F9
:104A50000E9002984FF0020800280CDA40420290B3
:104A60002D200E9007E00A210298FBF7BBFE3031A3
:104A7000029007F8011DB8F10001A8F10108F2DC6D
:104A800002980028EFD1791E0E980870307800F057
:104A9000200040F0450007F8020D12A8C01B00F1ED
:104AA00007081498007800B1012000EB0A01019872
:104AB00001EBE07105984144401A401E0590E00367
:104AC00006D45B462146179A059800F05DF8054428
:104AD0001498007818B15A46179990476D1CE00356
:104AE00024D55B462146179A059800F04DF80544F9
:104AF0001CE00498002807DBDDE90301884203DDA0
:104B00000098405C179901E0179930205A46904769
:104B1000049805F10105401C04900198401E019085
:104B200004D12E205A46179990476D1CBAF1000106
:104B3000AAF1010ADDDC05E017F8010B5A461799C6
:104B400090476D1CB8F10001A8F10108F4DC5B4648
:104B50002146179A0598ABE62D0000002B000000B7
:104B6000200000002DE9F041044600251E461746AE
:104B7000880404D405E039462020B0476D1C641E2B
:104B8000F9D52846BDE8F0812DE9F041044600251D
:104B90001E469046C80301D5302700E02027880430
:104BA00004D505E041463846B0476D1C641EF9D572
:104BB0002846BDE8F0810A68531C0B6010707047EE
:104BC0002DE9FE4F07460E460025684601F03EF9E6
:104BD00000246FF00F0AE8464FF0010957F824004F
:104BE00056F82410401A00D54042FBF779FD514693
:104BF000FBF7E2FB58F8241011F0FF4F0BD0FBF746
:104C00009DFB4FF07E51FBF761FB0A4920F000400D
:104C1000884205DC07E0084908440849884202D375
:104C200009FA04F00543641C032CD7DB2846BDE8D1
:104C3000FE8F0000295C0F3E666666C19A99D90016
:104C400010B50E48FCF712FA32210C48FCF770F947
:104C500008B10B4810BD0948FCF7A8F8FBF749FD5F
:104C6000FBF786FD074A084BFBF759FC0022074B70
:104C7000FBF755FCBDE81040FBF78DBDF0010020AF
:104C8000000080BFB4D934E70C684A3F00002640DA
:104C90002DE9F04D8D4F21F0004A86B005460C46B7
:104CA000BA452ADBAAEB070028430AD08848824588
:104CB00001DC1AD1CDB106B02846BDE8F04DFFF7B2
:104CC00008BB844A844B2846FBF729FC07460E465E
:104CD000824A834B28462146FBF721FC06B03A4620
:104CE0003346BDE8F04DFBF773BB0120FFF714FB23
:104CF00006B0BDE8F04DFFF7F1BA7A48824542DAD6
:104D0000BAF1795F0BDA2846FFF76AFA042808BF80
:104D1000FFF7EAFA284606B02146BDE8F08D2A469C
:104D20000B461046FBF7FBFB834602466E480E46D9
:104D30000B4606217844FFF777FA5A463346FBF7CD
:104D4000EEFB804669488A465A4633460421784439
:104D5000FFF76AFA5A463346FBF7E1FB00223B466F
:104D6000FBF736FB02460B4640465146FBF749FC33
:104D70002A462346FBF7D3FB06B02A462346BDE866
:104D8000F04DFBF725BB284624F0004100223D46AC
:104D90003B46FBF7C1FB4FF0FF32FBF71FFE064619
:104DA000024653480F460B4606217844FFF73CFA6B
:104DB00032463B46FBF7B3FBCDE900014D48324696
:104DC0003B4604217844FFF72FFA32463B46FBF777
:104DD000A6FB00222B46FBF7FBFA834602913046E6
:104DE000394602F011FA804643480D46504517DC1B
:104DF000DDE900015A46029BFBF703FC42462B46C5
:104E0000FBF78DFB42462B46FBF7E2FA0122FBF74C
:104E1000E5FD304A304BFBF77CFB304A304B4CE031
:104E20004FF0000A52460B464046FBF7D1FACDE957
:104E3000031052462B4610461946FBF770FB3246CC
:104E40003B46FBF769FBDDE90332FBF7DAFB06467D
:104E50000F46DDE900015A46029BFBF7D2FB834671
:104E60000091012230463946FBF7B8FD194A1A4B2A
:104E7000FBF752FB06460F46012240462946FBF748
:104E8000ADFD5A46009BFBF74AFB32463B46FBF71B
:104E900040FB06460F46012250462946FBF79EFD81
:104EA0000E4DDFF858802A464346FBF735FB324665
:104EB0003B46FBF731FB2A464346FBF72DFB002C14
:104EC000D8BF81F0004106B0BDE8F08D0000F03F92
:104ED0000000F07F075C143326A6913C182D445443
:104EE000FB21F93F0000E03F083D00001E3D0000AF
:104EF000923C0000A83C00003333EF3FFB21E93F28
:104F00002DE9F84F04460D4621F000400091734909
:104F1000814211DC7249884201DC06D12CB1204665
:104F20002946BDE8F84FFFF7D4B96E48002DCCBF35
:104F30006D496E49BDE8F88F6D49814211DD6D49BB
:104F40008142D8BF4FF0FF366DDD20462946FFF77E
:104F500047F9042808BFFFF7C7F920462946BDE8EE
:104F6000F88F6549654F25F00045814233DD64497E
:104F7000814219DD002632464FF080432046294603
:104F8000FBF726FA80468A46012220462946FBF78F
:104F900025FD00223B46FBF7BCFA42465346FBF791
:104FA00030FB04460D463EE001260022BA463B4651
:104FB00020462946FBF70CFA80460F46002253464E
:104FC00020462946FBF7A5FA42463B46FBF719FB6C
:104FD00004460D4627E04B4981421BDDDFF828A13E
:104FE00002260022534620462946FBF798FA002263
:104FF0003B46FBF7EDF980460F460022534620461C
:105000002946FBF786FA42463B46FBF7FAFA044686
:105010000D4608E0032622462B4600203B49FBF7BD
:10502000F0FA04460D4622462B4610461946FBF779
:1050300076FA8B46824602460B46FBF770FA074625
:105040000246334888460B4606217844FFF7ECF8C1
:1050500052465B46FBF763FA82462E488B463A4639
:10506000434605217844FFF7DFF83A464346FBF70D
:1050700056FA02460B46002E504659460CDAFBF70C
:10508000A7F922462B46FBF74AFA01B022462B46E7
:10509000BDE8F04FFBF740BAFBF79AF922462B46E2
:1050A000FBF73DFA1C4A7A4402EBC603D3E900231E
:1050B000FBF72FFA22462B46FBF72BFA174A7A44C6
:1050C00002EBC603D3E90023FBF726FA009A002A75
:1050D000B8BF81F00041BDE8F88F00000000104427
:1050E0000000F07F182D4454FB21F93FFB21F9BF4C
:1050F0000000DC3F0000203E0000F33F0000F03FD6
:105100000000E63F008003400000F83F0000F0BFD1
:10511000AA3A0000683A0000063A0000CE390000C2
:105120002DE9F04D9446CCF1000423F000464CEA02
:105130000404524F46EAD4749A46884621F000424D
:10514000BC4206D8454240EA050442EAD474BC4257
:1051500004D9BDE8F04D6246FFF7BEB8AAF140554C
:10516000A5F17F6555EA0C040BD0022404EAAA7469
:10517000434DDFF810E144EAD87452EA000B04D042
:105180000CE0BDE8F04DFFF7BBBE002C14BF012CB6
:10519000BDE8F08D022C30D0032C32D056EA0C0B37
:1051A0000AD0BE4220D1BA4209D126F0804622F070
:1051B00080423346114617E000291ADB25E0DFF86C
:1051C000C8B0FB44002C04BFDBE90001BDE8F08D52
:1051D000012C02BFDBE9000181F00041BDE8F08D48
:1051E000022C0AD0032C0CD0BA4212D1B8F1000F15
:1051F0000BDA23482549BDE8F08D28462449BDE84F
:10520000F08D28467146BDE8F08D1D482149BDE866
:10521000F08D921B12153C2AC4BF19481D490EDCA3
:10522000BAF1000FBEBF12F13C0F0020014606DBB1
:105230006246FBF7E6F921F00041FFF761FE002C22
:1052400008BFBDE8F08D012C04BF81F00041BDE82E
:10525000F08D114A114B022C07D0FBF75AF92A4660
:10526000BDE8F04D0A4BFBF754B9FBF752F92A465B
:10527000BDE8F04D064BFBF74FB900000000F07F92
:10528000182D4454FB2109C062390000FB21F9BFED
:10529000FB210940FB21F93F075C143326A6A13C02
:1052A0002DE9F04FDFF8349291B04C46B9F8040084
:1052B000FBF724FA8A4D00222B46FBF7A2F9FBF7F5
:1052C0006AFA0646608DFBF719FA00222B46FBF7B7
:1052D00098F9FBF760FA054630216846FAF78CFF2B
:1052E000804F30463946FAF7F1FF7F4EDFF8FCB1C8
:1052F0000446B04203D35946FAF796FF04463946AE
:105300002846FAF7E3FF0546B04203D35946FAF7B9
:105310008BFF054601462046FBF75AFA04D2594650
:105320002846FAF781FF0546DFF8C4A10027284682
:10533000DAE903682146FAF7C9FFFBF719FA6D4B62
:105340000022FBF75EF9CDE90E012046FBF710FACB
:105350006C46CDE90C013846FBF7D0F902460B4606
:10536000DDE90E01FBF7DBF802460B46DDE90C0137
:10537000FBF72EF8FBF70FFA594644F8270088424E
:1053800006DD0EB90126B846FAF7A0FF44F827005B
:105390007F1CBFB20C2FDED351465748C1E90368CA
:1053A0002844564D47464FF0000A4FF0010B05F1D7
:1053B000A802B0F5004F03D80C20C1E903B000E00B
:1053C000BEB300204E468F680B6912E007EB000C5D
:1053D000CCEBCC0C02EB4C0C54F82080CCF80280C7
:1053E00000EB4008B044401CB8F80680ACF80080E0
:1053F00080B29842EADB1F440020C3F10C0CA9469E
:10540000A6468F6010E0C518C0EBC00809EB480441
:105410005EF82560C4F8026005EB45062F4D401C80
:10542000354480B2ED8825808445ECDC0020344B87
:105430000EE01AE0C0EBC00502EB450403EB4505A6
:10544000D4F80260C5F802602488401C2C8080B229
:105450003C46B842EEDB4C6081F800B0C1F80CA0CD
:10546000C1F808A011B0BDE8F08F0B780020D3B1CF
:105470000023C7F10C060EE0C3EBC30C05EB4C0791
:1054800002EB4C0CD7F80280CCF802803F885B1C02
:10549000ACF800709BB29E42EEDC8D68C1F810A0A3
:1054A000354400238D60D1F808504E462F18C7EBC5
:1054B000C70702EB470754F820C0C7F802C000EB4B
:1054C000400CB444401CBCF806C080B2A7F800C031
:1054D0000C28EBD30B700C358D60C3E70836002029
:1054E0000000594000003443000080800000B443B5
:1054F000400000200000254000804CBC88080020AF
:105500002820002008B560B120208DF80000282058
:105510008DF8010030208DF8020038208DF803004E
:1055200004E0A32204216846FAF75FFE6A460421DC
:1055300040F69E2001F0D4FD01F09AFA08BD00006B
:105540003EB5044602208DF80000CA208DF8010007
:10555000E3208DF8020009208DF803006A4604213B
:10556000682001F0BDFDA3208DF80000610609D57B
:10557000C0218DF80110C8218DF80210C2218DF8CC
:10558000031005E08DF801008DF802008DF803008E
:1055900014F4C07F09D0C4218DF80410CC218DF8FB
:1055A0000510C6218DF8061005E08DF804008DF871
:1055B00005008DF806008DF808008DF807008DF8BD
:1055C00009006A460A2140F6A72001F089FDA007DC
:1055D0004FF0D80503D020208DF8000001E08DF8B1
:1055E00000506A46012140F6B62001F079FDA00680
:1055F00001D5012000E0002000F08EF814F4C07FF7
:105600001ED0E0050AD5B2208DF800008B208DF861
:105610000100B6208DF802009B2009E0B0208DF833
:10562000000080208DF80100B4208DF80200902049
:105630008DF803006A46042140F6A22001F050FDD7
:10564000E1074FF40B6022D0F8218DF800106A4674
:10565000012101F045FDFA21072000F039FB072068
:1056600000F004FB012000F021FB642000F0C4FBEB
:105670004FF4FA7000F0D0FBC821254800F0BEFAC4
:10568000282000F0D3FA0A2000F0E0FA05E08DF8B7
:1056900000506A46012101F023FDA00703D5D9205F
:1056A0008DF8000001E08DF800506A46012140F2BB
:1056B0003D7001F015FD600701D5012000E00020DC
:1056C00000F048F8E00601D5012000E00020FFF7D7
:1056D00019FF104D44F00800688101F0C9F900205D
:1056E000A873600601D50620A87314F4C07F02D009
:1056F000A87B801DA87314F0140F02D0A87B103073
:10570000A873A00702D0A87B001DA87300203EBD8F
:1057100009E3CA02083700200EB54FF4976310B1B1
:1057200006A107C901E008A207CA8DE807006A467A
:105730000921184601F0D4FC0EBD0000B8AAB38DB3
:10574000B4980D355D000000B8AAAAAAB088C3C5F8
:10575000C700000008B560B1C0208DF80000C2206D
:105760008DF80100C4208DF80200C6208DF80300DA
:1057700004E08B2204216846FAF737FD6A460421CB
:1057800040F6982001F0ACFC01F072F908BD000071
:10579000C8234FF48062024940F6F63001F04AB85F
:1057A000087E00082DE9FF4F89B01746DDE9165243
:1057B00000244C4E884681462C80A246B07B694628
:1057C00001F0E4F84FF0FF3B18B158460DB0BDE8CA
:1057D000F08F708910F0140F3CD0009909BA21F0B5
:1057E000FF039DF803100B433B6001991B1409BA9A
:1057F00021F0FF029DF807105B430A437A6002998B
:105800009DF80B4009BA21F0FF012143B960039CC8
:10581000091424BA24F0FF0C9DF80F4012144CEA2E
:10582000040CC7F80CC04FEA2C47494302FB023274
:1058300007FB071111441024A1F17061B1F1007F41
:1058400004D901F015F9A5F800A0BEE7298841F4B4
:10585000807129804206694611D50A19A41D138852
:105860005BBAA8F8003053885BBAA8F80230928877
:1058700052BAA8F804202A8842F008022A8010F4BC
:10588000C07F11D00A19A41D13885BBAA9F8003093
:1058900053885BBAA9F80230928852BAA9F804205A
:1058A0002A8842F070022A80800716D00C44E078E3
:1058B00000F0C00500F03F016078C00706D0C808BE
:1058C00001F007013268491C02B190476078000777
:1058D00003D5716809B1A80988470C9801F02AFC22
:1058E000002073E7083700202DE9FF41044603A894
:1058F00000F056FEBDF80C00410CC3032F4802898E
:1059000002F00300550754F8200000D54042C2F3CE
:10591000C105960654F8255000D56D42C2F3811694
:10592000D20554F8264000D56442A0FB0367C21795
:1059300002FB037200FB0120820042EA9670A5FB85
:105940000367EA1702FB037205FB0122950045EA93
:105950009672A4FB0367E51705FB037304FB013193
:105960008B0043EA9671030E8DF80030030C8DF81E
:105970000130030A8DF802308DF80300100E8DF807
:105980000400100C8DF80500100A8DF80600080EB2
:105990008DF80800080C8DF80900080A8DF80A0037
:1059A0008DF807208DF80B106A460C214FF42570F6
:1059B00001F096FB04B0BDE8F0810000083700203C
:1059C00030B5044613A285B007CA8DE807004FF032
:1059D000FF35C82C16D8C820B0FBF4F1491E080AC0
:1059E0008DF80C008DF80D1003AA022140F216204C
:1059F00001F076FB30B96A460C2140F6C12001F077
:105A00006FFB10B1284605B030BD054884810020E9
:105A1000F9E70000FEF2ABC4AAF1DFDFBBAFDFDFC6
:105A200008370020F8B53049098901F0030250F821
:105A300022404A0700D56442C1F3C1028B0650F8E8
:105A4000222000D55242C1F3811350F82330C805FB
:105A500000D55B42254984FB0140850045EA9470EE
:105A600082FB0142A40F44EA820483FB0121950FCB
:105A700045EA8105010E8DF80010010C8DF801102A
:105A8000010A8DF802108DF803006A4604214FF4D4
:105A9000747001F025FB4FF0FF3688B9200E8DF8A9
:105AA0000000200C8DF80100200A8DF802008DF80E
:105AB00003406A4604214FF4757001F011FB08B1F0
:105AC0003046F8BD280E8DF80000280C8DF8010036
:105AD000280A8DF802008DF803506A4604214FF41D
